{
  "contractName": "Registry",
  "abi": [
    {
      "constant": true,
      "inputs": [],
      "name": "count",
      "outputs": [
        {
          "name": "",
          "type": "uint256"
        }
      ],
      "payable": false,
      "stateMutability": "view",
      "type": "function"
    },
    {
      "constant": true,
      "inputs": [
        {
          "name": "",
          "type": "uint256"
        }
      ],
      "name": "registry",
      "outputs": [
        {
          "name": "serviceId",
          "type": "uint256"
        },
        {
          "name": "id",
          "type": "string"
        },
        {
          "name": "owner",
          "type": "address"
        },
        {
          "name": "index",
          "type": "uint256"
        },
        {
          "name": "name",
          "type": "string"
        },
        {
          "name": "stake",
          "type": "uint256"
        }
      ],
      "payable": false,
      "stateMutability": "view",
      "type": "function"
    },
    {
      "constant": true,
      "inputs": [
        {
          "name": "",
          "type": "uint256"
        }
      ],
      "name": "registryIds",
      "outputs": [
        {
          "name": "",
          "type": "uint256"
        }
      ],
      "payable": false,
      "stateMutability": "view",
      "type": "function"
    },
    {
      "inputs": [],
      "payable": false,
      "stateMutability": "nonpayable",
      "type": "constructor"
    },
    {
      "constant": false,
      "inputs": [
        {
          "name": "serviceId",
          "type": "uint256"
        },
        {
          "name": "name",
          "type": "string"
        },
        {
          "name": "id",
          "type": "string"
        }
      ],
      "name": "create",
      "outputs": [],
      "payable": true,
      "stateMutability": "payable",
      "type": "function"
    },
    {
      "constant": false,
      "inputs": [
        {
          "name": "serviceId",
          "type": "uint256"
        },
        {
          "name": "newOwner",
          "type": "address"
        }
      ],
      "name": "updateOwner",
      "outputs": [],
      "payable": false,
      "stateMutability": "nonpayable",
      "type": "function"
    },
    {
      "constant": false,
      "inputs": [
        {
          "name": "serviceId",
          "type": "uint256"
        },
        {
          "name": "newName",
          "type": "string"
        }
      ],
      "name": "updateName",
      "outputs": [],
      "payable": false,
      "stateMutability": "nonpayable",
      "type": "function"
    },
    {
      "constant": false,
      "inputs": [
        {
          "name": "serviceId",
          "type": "uint256"
        },
        {
          "name": "networkAddress",
          "type": "bytes32"
        }
      ],
      "name": "updateBootstrap",
      "outputs": [],
      "payable": false,
      "stateMutability": "nonpayable",
      "type": "function"
    },
    {
      "constant": true,
      "inputs": [
        {
          "name": "serviceId",
          "type": "uint256"
        }
      ],
      "name": "getBootstraps",
      "outputs": [
        {
          "name": "",
          "type": "bytes32[]"
        }
      ],
      "payable": false,
      "stateMutability": "view",
      "type": "function"
    },
    {
      "constant": true,
      "inputs": [],
      "name": "getServices",
      "outputs": [
        {
          "name": "",
          "type": "uint256[]"
        }
      ],
      "payable": false,
      "stateMutability": "view",
      "type": "function"
    },
    {
      "constant": true,
      "inputs": [
        {
          "name": "serviceId",
          "type": "uint256"
        }
      ],
      "name": "getService",
      "outputs": [
        {
          "name": "",
          "type": "uint256"
        },
        {
          "name": "",
          "type": "string"
        },
        {
          "name": "",
          "type": "string"
        },
        {
          "name": "",
          "type": "address"
        },
        {
          "name": "",
          "type": "uint256"
        }
      ],
      "payable": false,
      "stateMutability": "view",
      "type": "function"
    }
  ],
  "bytecode": "0x60806040523480156200001157600080fd5b5060c8604051908082528060200260200182016040528015620000435781602001602082028038833980820191505090505b50600190805190602001906200005b9291906200006a565b506000600281905550620000e4565b828054828255906000526020600020908101928215620000a9579160200282015b82811115620000a85782518255916020019190600101906200008b565b5b509050620000b89190620000bc565b5090565b620000e191905b80821115620000dd576000816000905550600101620000c3565b5090565b90565b6112ce80620000f46000396000f3fe6080604052600436106100a4576000357c0100000000000000000000000000000000000000000000000000000000900463ffffffff1680630192bc77146100a957806306661abd1461013957806353e76f2c146101645780635893253c146102365780635a4463a81461039e5780637192711f146104fa5780637541785114610555578063ef0e239b146105c1578063f093b62114610722578063fcb5401d14610771575b600080fd5b3480156100b557600080fd5b506100e2600480360360208110156100cc57600080fd5b81019080803590602001909291905050506107b6565b6040518080602001828103825283818151815260200191508051906020019060200280838360005b8381101561012557808201518184015260208101905061010a565b505050509050019250505060405180910390f35b34801561014557600080fd5b5061014e610849565b6040518082815260200191505060405180910390f35b34801561017057600080fd5b506102346004803603604081101561018757600080fd5b8101908080359060200190929190803590602001906401000000008111156101ae57600080fd5b8201836020820111156101c057600080fd5b803590602001918460018302840111640100000000831117156101e257600080fd5b91908080601f016020809104026020016040519081016040528093929190818152602001838380828437600081840152601f19601f82011690508083019250505050505050919291929050505061084f565b005b34801561024257600080fd5b5061026f6004803603602081101561025957600080fd5b810190808035906020019092919050505061091a565b60405180878152602001806020018673ffffffffffffffffffffffffffffffffffffffff1673ffffffffffffffffffffffffffffffffffffffff16815260200185815260200180602001848152602001838103835288818151815260200191508051906020019080838360005b838110156102f75780820151818401526020810190506102dc565b50505050905090810190601f1680156103245780820380516001836020036101000a031916815260200191505b50838103825285818151815260200191508051906020019080838360005b8381101561035d578082015181840152602081019050610342565b50505050905090810190601f16801561038a5780820380516001836020036101000a031916815260200191505b509850505050505050505060405180910390f35b6104f8600480360360608110156103b457600080fd5b8101908080359060200190929190803590602001906401000000008111156103db57600080fd5b8201836020820111156103ed57600080fd5b8035906020019184600183028401116401000000008311171561040f57600080fd5b91908080601f016020809104026020016040519081016040528093929190818152602001838380828437600081840152601f19601f8201169050808301925050505050505091929192908035906020019064010000000081111561047257600080fd5b82018360208201111561048457600080fd5b803590602001918460018302840111640100000000831117156104a657600080fd5b91908080601f016020809104026020016040519081016040528093929190818152602001838380828437600081840152601f19601f820116905080830192505050505050509192919290505050610aa6565b005b34801561050657600080fd5b506105536004803603604081101561051d57600080fd5b8101908080359060200190929190803573ffffffffffffffffffffffffffffffffffffffff169060200190929190505050610c4e565b005b34801561056157600080fd5b5061056a610d43565b6040518080602001828103825283818151815260200191508051906020019060200280838360005b838110156105ad578082015181840152602081019050610592565b505050509050019250505060405180910390f35b3480156105cd57600080fd5b506105fa600480360360208110156105e457600080fd5b8101908080359060200190929190505050610d9b565b6040518086815260200180602001806020018573ffffffffffffffffffffffffffffffffffffffff1673ffffffffffffffffffffffffffffffffffffffff168152602001848152602001838103835287818151815260200191508051906020019080838360005b8381101561067c578082015181840152602081019050610661565b50505050905090810190601f1680156106a95780820380516001836020036101000a031916815260200191505b50838103825286818151815260200191508051906020019080838360005b838110156106e25780820151818401526020810190506106c7565b50505050905090810190601f16801561070f5780820380516001836020036101000a031916815260200191505b5097505050505050505060405180910390f35b34801561072e57600080fd5b5061075b6004803603602081101561074557600080fd5b8101908080359060200190929190505050610fa0565b6040518082815260200191505060405180910390f35b34801561077d57600080fd5b506107b46004803603604081101561079457600080fd5b810190808035906020019092919080359060200190929190505050610fc3565b005b6060816000806000838152602001908152602001600020600001541115156107dd57600080fd5b60008084815260200190815260200160002060050180548060200260200160405190810160405280929190818152602001828054801561083c57602002820191906000526020600020905b815481526020019060010190808311610828575b5050505050915050919050565b60025481565b8160008060008381526020019081526020016000206000015411151561087457600080fd5b82600080600083815260200190815260200160002060020160009054906101000a900473ffffffffffffffffffffffffffffffffffffffff1690508073ffffffffffffffffffffffffffffffffffffffff163373ffffffffffffffffffffffffffffffffffffffff161415156108e957600080fd5b83600080878152602001908152602001600020600401908051906020019061091292919061110b565b505050505050565b6000602052806000526040600020600091509050806000015490806001018054600181600116156101000203166002900480601f0160208091040260200160405190810160405280929190818152602001828054600181600116156101000203166002900480156109cc5780601f106109a1576101008083540402835291602001916109cc565b820191906000526020600020905b8154815290600101906020018083116109af57829003601f168201915b5050505050908060020160009054906101000a900473ffffffffffffffffffffffffffffffffffffffff1690806003015490806004018054600181600116156101000203166002900480601f016020809104026020016040519081016040528092919081815260200182805460018160011615610100020316600290048015610a965780601f10610a6b57610100808354040283529160200191610a96565b820191906000526020600020905b815481529060010190602001808311610a7957829003601f168201915b5050505050908060060154905086565b82600080600083815260200190815260200160002060000154141515610acb57600080fd5b60e0604051908101604052808581526020018381526020013373ffffffffffffffffffffffffffffffffffffffff168152602001600081526020018481526020016005604051908082528060200260200182016040528015610b3c5781602001602082028038833980820191505090505b50815260200134815250600080868152602001908152602001600020600082015181600001556020820151816001019080519060200190610b7e92919061118b565b5060408201518160020160006101000a81548173ffffffffffffffffffffffffffffffffffffffff021916908373ffffffffffffffffffffffffffffffffffffffff160217905550606082015181600301556080820151816004019080519060200190610bec92919061118b565b5060a0820151816005019080519060200190610c0992919061120b565b5060c08201518160060155905050836001600254815481101515610c2957fe5b9060005260206000200181905550600160026000828254019250508190555050505050565b81600080600083815260200190815260200160002060000154111515610c7357600080fd5b82600080600083815260200190815260200160002060020160009054906101000a900473ffffffffffffffffffffffffffffffffffffffff1690508073ffffffffffffffffffffffffffffffffffffffff163373ffffffffffffffffffffffffffffffffffffffff16141515610ce857600080fd5b8360008087815260200190815260200160002060020160006101000a81548173ffffffffffffffffffffffffffffffffffffffff021916908373ffffffffffffffffffffffffffffffffffffffff1602179055505050505050565b60606001805480602002602001604051908101604052809291908181526020018280548015610d9157602002820191906000526020600020905b815481526020019060010190808311610d7d575b5050505050905090565b600060608060008085600080600083815260200190815260200160002060000154111515610dc857600080fd5b600080888152602001908152602001600020600001546000808981526020019081526020016000206004016000808a81526020019081526020016000206001016000808b815260200190815260200160002060020160009054906101000a900473ffffffffffffffffffffffffffffffffffffffff166000808c815260200190815260200160002060060154838054600181600116156101000203166002900480601f016020809104026020016040519081016040528092919081815260200182805460018160011615610100020316600290048015610ee95780601f10610ebe57610100808354040283529160200191610ee9565b820191906000526020600020905b815481529060010190602001808311610ecc57829003601f168201915b50505050509350828054600181600116156101000203166002900480601f016020809104026020016040519081016040528092919081815260200182805460018160011615610100020316600290048015610f855780601f10610f5a57610100808354040283529160200191610f85565b820191906000526020600020905b815481529060010190602001808311610f6857829003601f168201915b50505050509250955095509550955095505091939590929450565b600181815481101515610faf57fe5b906000526020600020016000915090505481565b81600080600083815260200190815260200160002060000154111515610fe857600080fd5b82600080828152602001908152602001600020600501805490506000808381526020019081526020016000206003015410151561102457600080fd5b83600080600083815260200190815260200160002060020160009054906101000a900473ffffffffffffffffffffffffffffffffffffffff1690508073ffffffffffffffffffffffffffffffffffffffff163373ffffffffffffffffffffffffffffffffffffffff1614151561109957600080fd5b84600080888152602001908152602001600020600501600080898152602001908152602001600020600301548154811015156110d157fe5b9060005260206000200181905550600160008088815260200190815260200160002060030160008282540192505081905550505050505050565b828054600181600116156101000203166002900490600052602060002090601f016020900481019282601f1061114c57805160ff191683800117855561117a565b8280016001018555821561117a579182015b8281111561117957825182559160200191906001019061115e565b5b5090506111879190611258565b5090565b828054600181600116156101000203166002900490600052602060002090601f016020900481019282601f106111cc57805160ff19168380011785556111fa565b828001600101855582156111fa579182015b828111156111f95782518255916020019190600101906111de565b5b5090506112079190611258565b5090565b828054828255906000526020600020908101928215611247579160200282015b8281111561124657825182559160200191906001019061122b565b5b509050611254919061127d565b5090565b61127a91905b8082111561127657600081600090555060010161125e565b5090565b90565b61129f91905b8082111561129b576000816000905550600101611283565b5090565b9056fea165627a7a72305820bb6c144c024b0fa2569c9d8e1dacbbaaa453f71a2b34e90d5d22306e37a3026b0029",
  "source": "pragma solidity >=0.4.22 <0.6.0;\ncontract Registry {\n\n\n\n    struct Service {\n        uint256 serviceId;\n        string id;\n        address owner;\n        uint256 index;\n        string name;\n        bytes32[] bootstraps;\n        uint256 stake;\n\n    }\n\n    /*\n    enum Type {\n\n    }\n    */\n\n\n    mapping(uint256 => Service) public registry;\n    uint256[] public registryIds;\n    uint256 public count;\n\n\n\n    //modifiers\n    modifier ownerOnly(uint256 serviceId) {\n        address serviceOwner = registry[serviceId].owner;\n        require(msg.sender == serviceOwner);\n        _;\n    }\n\n    modifier serviceExists(uint256 serviceId) {\n        require(registry[serviceId].serviceId > 0);\n        _;\n    }\n\n    modifier canAddBootstrap(uint256 serviceId) {\n        require(registry[serviceId].index < registry[serviceId].bootstraps.length);\n        _;\n    }\n\n    modifier serviceDoesNotExist(uint256 serviceId) {\n        require(registry[serviceId].serviceId == 0);\n        _;\n    }\n\n\n    constructor() public {\n        registryIds = new uint256[](200);\n        count = 0;\n    }\n\n    function create(uint256 serviceId, string memory name, string memory id) payable public serviceDoesNotExist(serviceId) {\n        registry[serviceId] = Service({serviceId: serviceId, owner: msg.sender, id: id, name: name, bootstraps: new bytes32[](5), index: 0, stake: msg.value});\n        registryIds[count] = serviceId;\n        count+=1;\n    }\n\n    function updateOwner(uint256 serviceId, address newOwner) public serviceExists(serviceId) ownerOnly(serviceId) {\n        registry[serviceId].owner = newOwner;\n    }\n\n    function updateName(uint256 serviceId, string memory newName) public serviceExists(serviceId) ownerOnly(serviceId) {\n        registry[serviceId].name = newName;\n    }\n\n   function updateBootstrap(uint256 serviceId, bytes32 networkAddress) public serviceExists(serviceId)\n        canAddBootstrap(serviceId) ownerOnly(serviceId)  {\n        registry[serviceId].bootstraps[registry[serviceId].index] = networkAddress;\n        registry[serviceId].index += 1;\n    }\n\n    function getBootstraps(uint256 serviceId) public view serviceExists(serviceId) returns (bytes32[] memory) {\n        return (registry[serviceId].bootstraps);\n    }\n\n    function getServices() public view returns (uint256[] memory) {\n        return (registryIds);\n    }\n\n    function getService(uint256 serviceId) public view serviceExists(serviceId) returns (uint256,\n       string memory, string memory, address, uint256) {\n        return (registry[serviceId].serviceId, registry[serviceId].name, registry[serviceId].id, registry[serviceId].owner, registry[serviceId].stake);\n    }\n\n}\n",
  "sourcePath": "/Users/chasesmith/Desktop/meshcache/registry/registryOnChain/contracts/registry.sol",
  "compiler": {
    "name": "solc",
    "version": "0.5.0+commit.1d4f565a.Emscripten.clang"
  },
  "schemaVersion": "3.0.6",
  "updatedAt": "2019-04-25T22:51:40.340Z",
  "devdoc": {
    "methods": {}
  },
  "userdoc": {
    "methods": {}
  }
}